:1000000033C0000055C000004AC0000048C00000D6
:1000100046C0000044C0000073C0000040C00000A3
:100020003EC000003CC000003AC0000038C00000E4
:1000300036C0000034C0000032C0000030C00000F4
:100040002EC000002CC000002AC0000028C0000004
:1000500026C0000024C0000022C0000020C0000014
:100060001EC000001CC0000011241FBECFEFD8E04E
:10007000DEBFCDBF11E0A0E0B1E0E6EFF1E002C0ED
:1000800005900D92A030B107D9F711E0A0E0B1E0E2
:1000900001C01D92A430B107E1F793D0AAC0B0CF40
:1000A000E89AE9E6F0E080818160808378940895A1
:1000B0001F920F920FB60F9211248F939F934A9B1A
:1000C0000BC0439A80910001909101010196909399
:1000D00001018093000101C043988091000190913B
:1000E0000101449734F02898109203011092020104
:1000F000A8959F918F910F900FBE0F901F9018950C
:100100001F920F920FB60F9211242F933F938F934C
:100110009F9383B78E7F83BF8091020190910301EB
:1001200001969093030180930201019739F4809125
:1001300000019091010144970CF0289A80910201EE
:10014000909103018031910541F42091000130919B
:100150000101243131050CF028984C977CF08091F6
:1001600000019091010144974CF0289A10920301EC
:1001700010920201109201011092000183B7816078
:1001800083BF9F918F913F912F910F900FBE0F9042
:100190001F90189583B7817F846083BF83B7816088
:1001A00083BF83B7816083BF889583B78E7F83BF0A
:1001B00083B78E7F83BFE4E6F0E080818071808327
:1001C00008958FEF84B987B95A9A6ADF84B7877F19
:1001D00084BF8091600088618093600084E0809398
:1001E000600080916000806480936000289AD2DF74
:0601F000FECFF894FFCFE2
:00000001FF
