:1000000033C0000055C000004AC0000048C00000D6
:1000100046C0000044C0000074C0000040C00000A2
:100020003EC000003CC000003AC0000038C00000E4
:1000300036C0000034C0000032C0000030C00000F4
:100040002EC000002CC000002AC0000028C0000004
:1000500026C0000024C0000022C0000020C0000014
:100060001EC000001CC0000011241FBECFEFD8E04E
:10007000DEBFCDBF11E0A0E0B1E0EAEFF1E002C0E9
:1000800005900D92A030B107D9F711E0A0E0B1E0E2
:1000900001C01D92A430B107E1F796D0ACC0B0CF3B
:1000A000E89AE9E6F0E080818160808378940895A1
:1000B0001F920F920FB60F9211248F939F934A9B1A
:1000C0000BC0299A809100019091010101969093B3
:1000D00001018093000101C0299880910001909155
:1000E00001018E3E910534F0289810920301109280
:1000F0000201A8959F918F910F900FBE0F901F90B6
:1001000018951F920F920FB60F9211242F933F93C1
:100110008F939F9383B78E7F83BF809102019091CD
:10012000030101969093030180930201019741F42A
:1001300080910001909101018E3E91050CF0289A6A
:1001400080910201909103018031910541F4209149
:100150000001309101012E3E31050CF028984C979A
:1001600084F080910001909101018E3E91054CF048
:10017000289A10920301109202011092010110922C
:10018000000183B7816083BF9F918F913F912F9131
:100190000F900FBE0F901F90189583B7817F8460DA
:1001A00083BF83B7816083BF83B7816083BF889536
:1001B00083B78E7F83BF83B78E7F83BFE4E6F0E093
:1001C00080818071808308958FEF84B95A9A68DFA7
:1001D00084B7877F84BF80916000886180936000CE
:1001E00084E0809360008091600080648093600070
:0A01F000289AD3DFFECFF894FFCF6A
:00000001FF
