:1000000033C000004AC000003FC000003DC00000F7
:100010003BC0000039C0000037C0000035C0000000
:1000200033C0000031C000002FC000002DC0000010
:100030002BC0000029C0000027C0000025C0000020
:1000400023C0000021C000001FC000001DC0000030
:100050001BC0000019C0000017C0000015C0000040
:1000600013C0000011C0000011241FBECFEFD8E064
:10007000DEBFCDBF11E0A0E0B1E001C01D92A23013
:10008000B107E1F738D044C0BBCFE89AE9E6F0E029
:10009000808181608083789408951F920F920FB6BB
:1000A0000F9211248F939F934A9B0BC0299A8091A2
:1000B000000190910101019690930101809300014C
:1000C00001C0299880910001909101010A9764F084
:1000D000289A87EA91E60197F1F700C00000289876
:1000E00010920101109200019F918F910F900FBE0D
:1000F0000F901F9018958FEF84B95A9AC6DF83B777
:10010000817F846083BF83B7816083BF8895FECF82
:04011000F894FFCF91
:00000001FF
